{
  "abi": [
    {
      "inputs": [
        {
          "internalType": "address",
          "name": "_wethAddress",
          "type": "address"
        }
      ],
      "stateMutability": "nonpayable",
      "type": "constructor"
    },
    {
      "anonymous": false,
      "inputs": [
        {
          "indexed": true,
          "internalType": "address",
          "name": "previousOwner",
          "type": "address"
        },
        {
          "indexed": true,
          "internalType": "address",
          "name": "newOwner",
          "type": "address"
        }
      ],
      "name": "OwnershipTransferred",
      "type": "event"
    },
    {
      "inputs": [],
      "name": "WETH_ADDRESS",
      "outputs": [
        {
          "internalType": "address",
          "name": "",
          "type": "address"
        }
      ],
      "stateMutability": "view",
      "type": "function"
    },
    {
      "inputs": [
        {
          "internalType": "address payable",
          "name": "_to",
          "type": "address"
        },
        {
          "internalType": "uint256",
          "name": "_value",
          "type": "uint256"
        },
        {
          "internalType": "bytes",
          "name": "_data",
          "type": "bytes"
        }
      ],
      "name": "call",
      "outputs": [],
      "stateMutability": "nonpayable",
      "type": "function"
    },
    {
      "inputs": [
        {
          "internalType": "address",
          "name": "firstPairAddress",
          "type": "address"
        },
        {
          "internalType": "address",
          "name": "secondPairAddress",
          "type": "address"
        },
        {
          "internalType": "uint256",
          "name": "percentageToPayToCoinbase",
          "type": "uint256"
        }
      ],
      "name": "executeArbitrage",
      "outputs": [],
      "stateMutability": "nonpayable",
      "type": "function"
    },
    {
      "inputs": [],
      "name": "owner",
      "outputs": [
        {
          "internalType": "address",
          "name": "",
          "type": "address"
        }
      ],
      "stateMutability": "view",
      "type": "function"
    },
    {
      "inputs": [],
      "name": "renounceOwnership",
      "outputs": [],
      "stateMutability": "nonpayable",
      "type": "function"
    },
    {
      "inputs": [
        {
          "internalType": "address",
          "name": "newOwner",
          "type": "address"
        }
      ],
      "name": "transferOwnership",
      "outputs": [],
      "stateMutability": "nonpayable",
      "type": "function"
    },
    {
      "inputs": [],
      "name": "withdrawETHToOwner",
      "outputs": [],
      "stateMutability": "nonpayable",
      "type": "function"
    },
    {
      "inputs": [],
      "name": "withdrawWETHToOwner",
      "outputs": [],
      "stateMutability": "nonpayable",
      "type": "function"
    },
    {
      "stateMutability": "payable",
      "type": "receive"
    }
  ],
  "bytecode": {
    "object": "0x60a060405234801561001057600080fd5b5060405161186638038061186683398101604081905261002f91610099565b61003833610049565b6001600160a01b03166080526100c9565b600080546001600160a01b038381166001600160a01b0319831681178455604051919092169283917f8be0079c531659141344cd1fd0a4f28419497f9722a3daafe3b4186f6b6457e09190a35050565b6000602082840312156100ab57600080fd5b81516001600160a01b03811681146100c257600080fd5b9392505050565b60805161175261011460003960008181609d015281816101ba0152818161038301528181610a0e01528181610b9201528181610d5f01528181610df1015261105301526117526000f3fe60806040526004361061007f5760003560e01c806377432b8c1161004e57806377432b8c146101325780638da5cb5b14610147578063ea3e506c14610165578063f2fde38b1461017a57600080fd5b8063040141e51461008b578063650f84be146100db5780636dbf2fa0146100fd578063715018a61461011d57600080fd5b3661008657005b600080fd5b34801561009757600080fd5b506100bf7f000000000000000000000000000000000000000000000000000000000000000081565b6040516001600160a01b03909116815260200160405180910390f35b3480156100e757600080fd5b506100fb6100f63660046113d8565b61019a565b005b34801561010957600080fd5b506100fb61011836600461142f565b610c34565b34801561012957600080fd5b506100fb610cf0565b34801561013e57600080fd5b506100fb610d04565b34801561015357600080fd5b506000546001600160a01b03166100bf565b34801561017157600080fd5b506100fb610d3f565b34801561018657600080fd5b506100fb6101953660046114fc565b610e66565b6101a2610edf565b6040516370a0823160e01b81523060048201526000907f00000000000000000000000000000000000000000000000000000000000000006001600160a01b0316906370a0823190602401602060405180830381865afa158015610209573d6000803e3d6000fd5b505050506040513d601f19601f8201168201806040525081019061022d9190611519565b905061026e6040518060400160405280601681526020017f5374617274696e672062616c616e636520203a2025730000000000000000000081525082610f39565b8383600061027b83610f93565b9050600061028883610f93565b90506102c86040518060400160405280601b81526020017f0a2d2d2d2d2d2d2d2d2d20505249434553202d2d2d2d2d2d2d2d2d000000000081525061114b565b61030b6040518060400160405280601681526020017f6669727374506169722070726963652020203a202573000000000000000000008152508360400151610f39565b61034e6040518060400160405280601681526020017f7365636f6e645061697220707269636520203a202573000000000000000000008152508260400151610f39565b600061035a83836111a3565b60405163a9059cbb60e01b81526001600160a01b038b81166004830152602482018390529192507f00000000000000000000000000000000000000000000000000000000000000009091169063a9059cbb906044016020604051808303816000875af11580156103ce573d6000803e3d6000fd5b505050506040513d601f19601f820116820180604052508101906103f29190611532565b50600080846060015115156001151503610703576104198386600001518760200151611269565b915061042e8285602001518660000151611269565b90506104516040518060600160405280602281526020016116fb6022913961114b565b6104906040518060400160405280601681526020017f616d6f756e74496e202020202020202020203a2025730000000000000000000081525084610f39565b6104cf6040518060400160405280601681526020017f666972737450616972416d6f756e744f75743a2025730000000000000000000081525083610f39565b61050e6040518060400160405280601681526020017f66696e616c416d6f756e744f7574202020203a2025730000000000000000000081525082610f39565b60408051808201909152601681527f6172622070726f66697420202020202020203a2025730000000000000000000060208201526105559061055083866112b7565b610f39565b6105936040518060400160405280601c81526020017f0a2d2d2d2d2d2d2d2d2d2054524144494e47202d2d2d2d2d2d2d2d2d0000000081525061114b565b60405163022c0d9f60e01b8152600060048201819052602482018490526001600160a01b038c8116604484015260806064840152608483019190915288169063022c0d9f9060a401600060405180830381600087803b1580156105f557600080fd5b505af1158015610609573d6000803e3d6000fd5b5050505061064b6040518060400160405280601381526020017f666972737450616972207377617020646f6e650000000000000000000000000081525061114b565b60405163022c0d9f60e01b8152600481018290526000602482018190523060448301526080606483015260848201526001600160a01b0387169063022c0d9f9060a401600060405180830381600087803b1580156106a857600080fd5b505af11580156106bc573d6000803e3d6000fd5b505050506106fe6040518060400160405280601481526020017f7365636f6e6450616972207377617020646f6e6500000000000000000000000081525061114b565b6109f6565b6107168386602001518760000151611269565b915061072b8285600001518660200151611269565b905061074e6040518060600160405280602281526020016116fb6022913961114b565b61078d6040518060400160405280601681526020017f616d6f756e74496e202020202020202020203a2025730000000000000000000081525084610f39565b6107cc6040518060400160405280601681526020017f666972737450616972416d6f756e744f75743a2025730000000000000000000081525083610f39565b61080b6040518060400160405280601681526020017f66696e616c416d6f756e744f7574202020203a2025730000000000000000000081525082610f39565b60408051808201909152601681527f6172622070726f66697420202020202020203a20257300000000000000000000602082015261084d9061055083866112b7565b61088b6040518060400160405280601c81526020017f0a2d2d2d2d2d2d2d2d2d2054524144494e47202d2d2d2d2d2d2d2d2d0000000081525061114b565b60405163022c0d9f60e01b8152600481018390526000602482018190526001600160a01b038c8116604484015260806064840152608483019190915288169063022c0d9f9060a401600060405180830381600087803b1580156108ed57600080fd5b505af1158015610901573d6000803e3d6000fd5b505050506109436040518060400160405280601381526020017f666972737450616972207377617020646f6e650000000000000000000000000081525061114b565b60405163022c0d9f60e01b8152600060048201819052602482018390523060448301526080606483015260848201526001600160a01b0387169063022c0d9f9060a401600060405180830381600087803b1580156109a057600080fd5b505af11580156109b4573d6000803e3d6000fd5b505050506109f66040518060400160405280601481526020017f7365636f6e6450616972207377617020646f6e6500000000000000000000000081525061114b565b6040516370a0823160e01b81523060048201526000907f00000000000000000000000000000000000000000000000000000000000000006001600160a01b0316906370a0823190602401602060405180830381865afa158015610a5d573d6000803e3d6000fd5b505050506040513d601f19601f82011682018060405250810190610a819190611519565b9050888111610ad75760405162461bcd60e51b815260206004820152601060248201527f417262697472616765206661696c65640000000000000000000000000000000060448201526064015b60405180910390fd5b610b156040518060400160405280601c81526020017f0a2d2d2d2d2d2d2d2d2d2053554343455353202d2d2d2d2d2d2d2d2d0000000081525061114b565b610b546040518060400160405280601681526020017f456e64696e672062616c616e6365202020203a2025730000000000000000000081525082610f39565b6000610b60828b6112b7565b90506000610b796064610b73848f6112ca565b906112d6565b604051632e1a7d4d60e01b8152600481018290529091507f00000000000000000000000000000000000000000000000000000000000000006001600160a01b031690632e1a7d4d90602401600060405180830381600087803b158015610bde57600080fd5b505af1158015610bf2573d6000803e3d6000fd5b505060405141925083156108fc02915083906000818181858888f19350505050158015610c23573d6000803e3d6000fd5b505050505050505050505050505050565b610c3c610edf565b6000836001600160a01b03168383604051610c579190611578565b60006040518083038185875af1925050503d8060008114610c94576040519150601f19603f3d011682016040523d82523d6000602084013e610c99565b606091505b5050905080610cea5760405162461bcd60e51b815260206004820152601460248201527f45787465726e616c2063616c6c206661696c65640000000000000000000000006044820152606401610ace565b50505050565b610cf8610edf565b610d0260006112e2565b565b610d0c610edf565b6040514790339082156108fc029083906000818181858888f19350505050158015610d3b573d6000803e3d6000fd5b5050565b610d47610edf565b6040516370a0823160e01b81523060048201526000907f00000000000000000000000000000000000000000000000000000000000000006001600160a01b0316906370a0823190602401602060405180830381865afa158015610dae573d6000803e3d6000fd5b505050506040513d601f19601f82011682018060405250810190610dd29190611519565b60405163a9059cbb60e01b8152336004820152602481018290529091507f00000000000000000000000000000000000000000000000000000000000000006001600160a01b03169063a9059cbb906044016020604051808303816000875af1158015610e42573d6000803e3d6000fd5b505050506040513d601f19601f82011682018060405250810190610d3b9190611532565b610e6e610edf565b6001600160a01b038116610ed35760405162461bcd60e51b815260206004820152602660248201527f4f776e61626c653a206e6577206f776e657220697320746865207a65726f206160448201526564647265737360d01b6064820152608401610ace565b610edc816112e2565b50565b6000546001600160a01b03163314610d025760405162461bcd60e51b815260206004820181905260248201527f4f776e61626c653a2063616c6c6572206973206e6f7420746865206f776e65726044820152606401610ace565b610d3b8282604051602401610f4f9291906115c0565b60408051601f198184030181529190526020810180517bffffffffffffffffffffffffffffffffffffffffffffffffffffffff166309710a9d60e41b17905261134a565b610fc060405180608001604052806000815260200160008152602001600081526020016000151581525090565b600080836001600160a01b0316630902f1ac6040518163ffffffff1660e01b8152600401606060405180830381865afa158015611001573d6000803e3d6000fd5b505050506040513d601f19601f820116820180604052508101906110259190611605565b506dffffffffffffffffffffffffffff1691506dffffffffffffffffffffffffffff169150600080600090507f00000000000000000000000000000000000000000000000000000000000000006001600160a01b0316866001600160a01b0316630dfe16816040518163ffffffff1660e01b8152600401602060405180830381865afa1580156110b9573d6000803e3d6000fd5b505050506040513d601f19601f820116820180604052508101906110dd9190611655565b6001600160a01b03160361110c5761110184610b7385670de0b6b3a76400006112ca565b915060019050611125565b61112283610b7386670de0b6b3a76400006112ca565b91505b604080516080810182529485526020850193909352918301521515606082015292915050565b610edc8160405160240161115f9190611672565b60408051601f198184030181529190526020810180517bffffffffffffffffffffffffffffffffffffffffffffffffffffffff1663104c13eb60e21b17905261134a565b6000806103e5905060006111f0670de0b6b3a76400006111ea6111e587604001516111df8a604001516111df898a6112ca90919063ffffffff16565b906112ca565b61136b565b906112b7565b905060006112178660200151610b73670de0b6b3a7640000866112ca90919063ffffffff16565b9050600061123e8660200151610b7389604001516111df88896112ca90919063ffffffff16565b9050600061124c83836113b7565b9050600061125a85836112d6565b96505050505050505b92915050565b600080611278856103e56112ca565b9050600061128682856112ca565b905060006112a08361129a886103e86112ca565b906113b7565b90506112ac818361169b565b979650505050505050565b60006112c382846116bd565b9392505050565b60006112c382846116d0565b60006112c3828461169b565b600080546001600160a01b038381167fffffffffffffffffffffffff0000000000000000000000000000000000000000831681178455604051919092169283917f8be0079c531659141344cd1fd0a4f28419497f9722a3daafe3b4186f6b6457e09190a35050565b80516a636f6e736f6c652e6c6f67602083016000808483855afa5050505050565b60008160000361137d57506000919050565b600061138f6002610b738560016113b7565b9050825b808210156112c35750806113b06002610b738361129a88826112d6565b9150611393565b60006112c382846116e7565b6001600160a01b0381168114610edc57600080fd5b6000806000606084860312156113ed57600080fd5b83356113f8816113c3565b92506020840135611408816113c3565b929592945050506040919091013590565b634e487b7160e01b600052604160045260246000fd5b60008060006060848603121561144457600080fd5b833561144f816113c3565b925060208401359150604084013567ffffffffffffffff8082111561147357600080fd5b818601915086601f83011261148757600080fd5b81358181111561149957611499611419565b604051601f8201601f19908116603f011681019083821181831017156114c1576114c1611419565b816040528281528960208487010111156114da57600080fd5b8260208601602083013760006020848301015280955050505050509250925092565b60006020828403121561150e57600080fd5b81356112c3816113c3565b60006020828403121561152b57600080fd5b5051919050565b60006020828403121561154457600080fd5b815180151581146112c357600080fd5b60005b8381101561156f578181015183820152602001611557565b50506000910152565b6000825161158a818460208701611554565b9190910192915050565b600081518084526115ac816020860160208601611554565b601f01601f19169290920160200192915050565b6040815260006115d36040830185611594565b90508260208301529392505050565b80516dffffffffffffffffffffffffffff8116811461160057600080fd5b919050565b60008060006060848603121561161a57600080fd5b611623846115e2565b9250611631602085016115e2565b9150604084015163ffffffff8116811461164a57600080fd5b809150509250925092565b60006020828403121561166757600080fd5b81516112c3816113c3565b6020815260006112c36020830184611594565b634e487b7160e01b600052601160045260246000fd5b6000826116b857634e487b7160e01b600052601260045260246000fd5b500490565b8181038181111561126357611263611685565b808202811582820484141761126357611263611685565b808201808211156112635761126361168556fe0a2d2d2d2d2d2d2d2d2d20545241444520414d4f554e5453202d2d2d2d2d2d2d2d2da2646970667358221220f73c516adc38f4595aa60ddda78a91369ce254a94459f9d2a19d67cee5121e1364736f6c63430008120033",
    "linkReferences": {}
  },
  "methodIdentifiers": {
    "WETH_ADDRESS()": "040141e5",
    "call(address,uint256,bytes)": "6dbf2fa0",
    "executeArbitrage(address,address,uint256)": "650f84be",
    "owner()": "8da5cb5b",
    "renounceOwnership()": "715018a6",
    "transferOwnership(address)": "f2fde38b",
    "withdrawETHToOwner()": "77432b8c",
    "withdrawWETHToOwner()": "ea3e506c"
  },
  "id": 28
}