{
  "abi": [
    {
      "inputs": [
        {
          "internalType": "address",
          "name": "_wethAddress",
          "type": "address"
        }
      ],
      "stateMutability": "nonpayable",
      "type": "constructor"
    },
    {
      "anonymous": false,
      "inputs": [
        {
          "indexed": true,
          "internalType": "address",
          "name": "previousOwner",
          "type": "address"
        },
        {
          "indexed": true,
          "internalType": "address",
          "name": "newOwner",
          "type": "address"
        }
      ],
      "name": "OwnershipTransferred",
      "type": "event"
    },
    {
      "inputs": [],
      "name": "WETH_ADDRESS",
      "outputs": [
        {
          "internalType": "address",
          "name": "",
          "type": "address"
        }
      ],
      "stateMutability": "view",
      "type": "function"
    },
    {
      "inputs": [
        {
          "internalType": "address payable",
          "name": "_to",
          "type": "address"
        },
        {
          "internalType": "uint256",
          "name": "_value",
          "type": "uint256"
        },
        {
          "internalType": "bytes",
          "name": "_data",
          "type": "bytes"
        }
      ],
      "name": "call",
      "outputs": [],
      "stateMutability": "nonpayable",
      "type": "function"
    },
    {
      "inputs": [
        {
          "internalType": "address",
          "name": "firstPairAddress",
          "type": "address"
        },
        {
          "internalType": "address",
          "name": "secondPairAddress",
          "type": "address"
        },
        {
          "internalType": "uint256",
          "name": "percentageToPayToCoinbase",
          "type": "uint256"
        }
      ],
      "name": "executeArbitrage",
      "outputs": [],
      "stateMutability": "nonpayable",
      "type": "function"
    },
    {
      "inputs": [],
      "name": "owner",
      "outputs": [
        {
          "internalType": "address",
          "name": "",
          "type": "address"
        }
      ],
      "stateMutability": "view",
      "type": "function"
    },
    {
      "inputs": [],
      "name": "renounceOwnership",
      "outputs": [],
      "stateMutability": "nonpayable",
      "type": "function"
    },
    {
      "inputs": [
        {
          "internalType": "address",
          "name": "newOwner",
          "type": "address"
        }
      ],
      "name": "transferOwnership",
      "outputs": [],
      "stateMutability": "nonpayable",
      "type": "function"
    },
    {
      "inputs": [],
      "name": "withdrawETHToOwner",
      "outputs": [],
      "stateMutability": "nonpayable",
      "type": "function"
    },
    {
      "inputs": [],
      "name": "withdrawWETHToOwner",
      "outputs": [],
      "stateMutability": "nonpayable",
      "type": "function"
    },
    {
      "stateMutability": "payable",
      "type": "receive"
    }
  ],
  "bytecode": {
    "object": "0x60a060405234801561001057600080fd5b506040516111cb3803806111cb83398101604081905261002f91610099565b61003833610049565b6001600160a01b03166080526100c9565b600080546001600160a01b038381166001600160a01b0319831681178455604051919092169283917f8be0079c531659141344cd1fd0a4f28419497f9722a3daafe3b4186f6b6457e09190a35050565b6000602082840312156100ab57600080fd5b81516001600160a01b03811681146100c257600080fd5b9392505050565b6080516110b761011460003960008181609d015281816101ba01528181610280015281816105570152818161065e0152818161082b015281816108bd0152610ac501526110b76000f3fe60806040526004361061007f5760003560e01c806377432b8c1161004e57806377432b8c146101325780638da5cb5b14610147578063ea3e506c14610165578063f2fde38b1461017a57600080fd5b8063040141e51461008b578063650f84be146100db5780636dbf2fa0146100fd578063715018a61461011d57600080fd5b3661008657005b600080fd5b34801561009757600080fd5b506100bf7f000000000000000000000000000000000000000000000000000000000000000081565b6040516001600160a01b03909116815260200160405180910390f35b3480156100e757600080fd5b506100fb6100f6366004610dd1565b61019a565b005b34801561010957600080fd5b506100fb610118366004610e28565b610700565b34801561012957600080fd5b506100fb6107bc565b34801561013e57600080fd5b506100fb6107d0565b34801561015357600080fd5b506000546001600160a01b03166100bf565b34801561017157600080fd5b506100fb61080b565b34801561018657600080fd5b506100fb610195366004610ef5565b610932565b6101a26109ab565b6040516370a0823160e01b81523060048201526000907f00000000000000000000000000000000000000000000000000000000000000006001600160a01b0316906370a0823190602401602060405180830381865afa158015610209573d6000803e3d6000fd5b505050506040513d601f19601f8201168201806040525081019061022d9190610f12565b90508383600061023c83610a05565b9050600061024983610a05565b905060006102578383610bbd565b60405163a9059cbb60e01b81526001600160a01b038b81166004830152602482018390529192507f00000000000000000000000000000000000000000000000000000000000000009091169063a9059cbb906044016020604051808303816000875af11580156102cb573d6000803e3d6000fd5b505050506040513d601f19601f820116820180604052508101906102ef9190610f2b565b50600080846060015115156001151503610423576103168386600001518760200151610c83565b915061032b8285602001518660000151610c83565b60405163022c0d9f60e01b8152600060048201819052602482018590526001600160a01b038d811660448401526080606484015260848301919091529192509088169063022c0d9f9060a401600060405180830381600087803b15801561039157600080fd5b505af11580156103a5573d6000803e3d6000fd5b505060405163022c0d9f60e01b8152600481018490526000602482018190523060448301526080606483015260848201526001600160a01b038916925063022c0d9f915060a401600060405180830381600087803b15801561040657600080fd5b505af115801561041a573d6000803e3d6000fd5b5050505061053f565b6104368386602001518760000151610c83565b915061044b8285600001518660200151610c83565b60405163022c0d9f60e01b8152600481018490526000602482018190526001600160a01b038d811660448401526080606484015260848301919091529192509088169063022c0d9f9060a401600060405180830381600087803b1580156104b157600080fd5b505af11580156104c5573d6000803e3d6000fd5b505060405163022c0d9f60e01b8152600060048201819052602482018590523060448301526080606483015260848201526001600160a01b038916925063022c0d9f915060a401600060405180830381600087803b15801561052657600080fd5b505af115801561053a573d6000803e3d6000fd5b505050505b6040516370a0823160e01b81523060048201526000907f00000000000000000000000000000000000000000000000000000000000000006001600160a01b0316906370a0823190602401602060405180830381865afa1580156105a6573d6000803e3d6000fd5b505050506040513d601f19601f820116820180604052508101906105ca9190610f12565b90508881116106205760405162461bcd60e51b815260206004820152601060248201527f417262697472616765206661696c65640000000000000000000000000000000060448201526064015b60405180910390fd5b600061062c828b610cd1565b90506000610645606461063f848f610ce4565b90610cf0565b604051632e1a7d4d60e01b8152600481018290529091507f00000000000000000000000000000000000000000000000000000000000000006001600160a01b031690632e1a7d4d90602401600060405180830381600087803b1580156106aa57600080fd5b505af11580156106be573d6000803e3d6000fd5b505060405141925083156108fc02915083906000818181858888f193505050501580156106ef573d6000803e3d6000fd5b505050505050505050505050505050565b6107086109ab565b6000836001600160a01b031683836040516107239190610f4d565b60006040518083038185875af1925050503d8060008114610760576040519150601f19603f3d011682016040523d82523d6000602084013e610765565b606091505b50509050806107b65760405162461bcd60e51b815260206004820152601460248201527f45787465726e616c2063616c6c206661696c65640000000000000000000000006044820152606401610617565b50505050565b6107c46109ab565b6107ce6000610cfc565b565b6107d86109ab565b6040514790339082156108fc029083906000818181858888f19350505050158015610807573d6000803e3d6000fd5b5050565b6108136109ab565b6040516370a0823160e01b81523060048201526000907f00000000000000000000000000000000000000000000000000000000000000006001600160a01b0316906370a0823190602401602060405180830381865afa15801561087a573d6000803e3d6000fd5b505050506040513d601f19601f8201168201806040525081019061089e9190610f12565b60405163a9059cbb60e01b8152336004820152602481018290529091507f00000000000000000000000000000000000000000000000000000000000000006001600160a01b03169063a9059cbb906044016020604051808303816000875af115801561090e573d6000803e3d6000fd5b505050506040513d601f19601f820116820180604052508101906108079190610f2b565b61093a6109ab565b6001600160a01b03811661099f5760405162461bcd60e51b815260206004820152602660248201527f4f776e61626c653a206e6577206f776e657220697320746865207a65726f206160448201526564647265737360d01b6064820152608401610617565b6109a881610cfc565b50565b6000546001600160a01b031633146107ce5760405162461bcd60e51b815260206004820181905260248201527f4f776e61626c653a2063616c6c6572206973206e6f7420746865206f776e65726044820152606401610617565b610a3260405180608001604052806000815260200160008152602001600081526020016000151581525090565b600080836001600160a01b0316630902f1ac6040518163ffffffff1660e01b8152600401606060405180830381865afa158015610a73573d6000803e3d6000fd5b505050506040513d601f19601f82011682018060405250810190610a979190610f9f565b506dffffffffffffffffffffffffffff1691506dffffffffffffffffffffffffffff169150600080600090507f00000000000000000000000000000000000000000000000000000000000000006001600160a01b0316866001600160a01b0316630dfe16816040518163ffffffff1660e01b8152600401602060405180830381865afa158015610b2b573d6000803e3d6000fd5b505050506040513d601f19601f82011682018060405250810190610b4f9190610fef565b6001600160a01b031603610b7e57610b738461063f85670de0b6b3a7640000610ce4565b915060019050610b97565b610b948361063f86670de0b6b3a7640000610ce4565b91505b604080516080810182529485526020850193909352918301521515606082015292915050565b6000806103e590506000610c0a670de0b6b3a7640000610c04610bff8760400151610bf98a60400151610bf9898a610ce490919063ffffffff16565b90610ce4565b610d64565b90610cd1565b90506000610c31866020015161063f670de0b6b3a764000086610ce490919063ffffffff16565b90506000610c58866020015161063f8960400151610bf98889610ce490919063ffffffff16565b90506000610c668383610db0565b90506000610c748583610cf0565b96505050505050505b92915050565b600080610c92856103e5610ce4565b90506000610ca08285610ce4565b90506000610cba83610cb4886103e8610ce4565b90610db0565b9050610cc68183611022565b979650505050505050565b6000610cdd8284611044565b9392505050565b6000610cdd8284611057565b6000610cdd8284611022565b600080546001600160a01b038381167fffffffffffffffffffffffff0000000000000000000000000000000000000000831681178455604051919092169283917f8be0079c531659141344cd1fd0a4f28419497f9722a3daafe3b4186f6b6457e09190a35050565b600081600003610d7657506000919050565b6000610d88600261063f856001610db0565b9050825b80821015610cdd575080610da9600261063f83610cb48882610cf0565b9150610d8c565b6000610cdd828461106e565b6001600160a01b03811681146109a857600080fd5b600080600060608486031215610de657600080fd5b8335610df181610dbc565b92506020840135610e0181610dbc565b929592945050506040919091013590565b634e487b7160e01b600052604160045260246000fd5b600080600060608486031215610e3d57600080fd5b8335610e4881610dbc565b925060208401359150604084013567ffffffffffffffff80821115610e6c57600080fd5b818601915086601f830112610e8057600080fd5b813581811115610e9257610e92610e12565b604051601f8201601f19908116603f01168101908382118183101715610eba57610eba610e12565b81604052828152896020848701011115610ed357600080fd5b8260208601602083013760006020848301015280955050505050509250925092565b600060208284031215610f0757600080fd5b8135610cdd81610dbc565b600060208284031215610f2457600080fd5b5051919050565b600060208284031215610f3d57600080fd5b81518015158114610cdd57600080fd5b6000825160005b81811015610f6e5760208186018101518583015201610f54565b506000920191825250919050565b80516dffffffffffffffffffffffffffff81168114610f9a57600080fd5b919050565b600080600060608486031215610fb457600080fd5b610fbd84610f7c565b9250610fcb60208501610f7c565b9150604084015163ffffffff81168114610fe457600080fd5b809150509250925092565b60006020828403121561100157600080fd5b8151610cdd81610dbc565b634e487b7160e01b600052601160045260246000fd5b60008261103f57634e487b7160e01b600052601260045260246000fd5b500490565b81810381811115610c7d57610c7d61100c565b8082028115828204841417610c7d57610c7d61100c565b80820180821115610c7d57610c7d61100c56fea2646970667358221220f9db8b75c19979f56166cb92744613f7da45497528c02bed1e403191e43b79ac64736f6c63430008120033",
    "linkReferences": {}
  },
  "methodIdentifiers": {
    "WETH_ADDRESS()": "040141e5",
    "call(address,uint256,bytes)": "6dbf2fa0",
    "executeArbitrage(address,address,uint256)": "650f84be",
    "owner()": "8da5cb5b",
    "renounceOwnership()": "715018a6",
    "transferOwnership(address)": "f2fde38b",
    "withdrawETHToOwner()": "77432b8c",
    "withdrawWETHToOwner()": "ea3e506c"
  },
  "id": 27
}